:0408DC00021A0000FC
:100873001209E81209061207128E1A8F1BD3E51B01
:100883009401E51A64809480500612056E120712D3
:10089300D3E51B9401E51A6480948040D91202FACF
:0508A30012071280D1D4
:0509A700C285D286228A
:0509AC00D285D2862275
:0509B100D285C2862280
:0509B600C283D284227F
:0509BB00D283D284226A
:0509C000D283C2842275
:0509C500D2B5C2B6220C
:0509CA00D2B5D2B622F7
:0509CF00C2B5D2B62202
:0509D400D2B3C2B42201
:0509D900D2B3D2B422EC
:0509DE00C2B3D2B422F7
:10090600758911758AA4758CFFC28DD28CD2A9D235
:04091600AFD2B92281
:03000B000208A840
:1008A800C0E0C0D0758AA4758CFF051DE51DC394F2
:1008B800644003751D00E51DC3951C500AD287D2FC
:1008C80082D2B7D2B28008C287C282C2B7C2B2D0BF
:0408D800D0D0E0326A
:0F091A00751C101209A71209B61209C50209D4DB
:0F092900751C1E1209B11209C01209CF0209DE96
:0F093800751C1E1209AC1209BB1209CA0209D99B
:0F094700751C1E1209A71209BB1209C50209D996
:0F095600751C1E1209AC1209B61209CA0209D487
:0F096500751C191209B11209BB1209CF0209D969
:0F097400751C191209AC1209C01209CA0209DE5A
:0F098300751C191209A71209C01209C50209DE55
:0F099200751C191209B11209B61209CF0209D446
:1008F100EF1FAC0670011E4C600A7D027CEFDCFE2E
:04090100DDFC80ECAD
:0109050022CF
:05000300007F05DFFE97
:0100080022D5
:10056E00758911E4F58BF58DD2AFD2A0120003C2BE
:10057E00A030A1FDD28E20A1FDC28EAF8DEFFEADBB
:10058E008B7C00E42DFDEC3EFCE41202327B967A6D
:10059E0043790B783D12000EE4FBFAF97840120114
:1005AE001712026B8E148F15E4F58BF58DD2A212F5
:1005BE000003C2A230A3FDD28E20A3FDC28EAF8D4A
:1005CE00EFFEAD8B7C00E42DFDEC3EFCE41202321E
:1005DE007B967A43790B783D12000EE4FBFAF9789C
:1005EE004012011712026B8E168F17E4F58BF58DE4
:1005FE00D2A4120003C2A430A5FDD28E20A5FDC246
:10060E008EAF8DEFFEAD8B7C00E42DFDEC3EFCE459
:10061E001202327B967A43790B783D12000EE4FB80
:10062E00FAF9784012011712026B8E188F19E4F541
:10063E008BF58DC3E515940FE5149400501E120929
:10064E00387F507E001208F11209837F967E0012C9
:10065E0008F11209387F507E001208F1C3E5179495
:10066E000FE516940050111209387F507E001208C3
:10067E00F11209837F96807CAC18AD19E412023218
:10068E00E4FBFA790878411201B46020401E120989
:10069E00477F327E001208F112091A7F827E001205
:1006AE0008F11209387F507E001208F1AC18AD190E
:1006BE00E4120232E4FBFA790878411201B4504395
:1006CE00E5199432E5189400401BE51994C8E51815
:1006DE00940050111209567F5A7E001208F1120929
:1006EE001A7F32800F1209567F467E001208F112D1
:1006FE00091A7F827E001208F11209387F507E009F
:04070E001208F122BA
:0509E300D290D2912228
:0509E800C290C2912243
:0408E000021E0002F2
:100712002092331209387F507E001208F11209E349
:100722007F887E131208F11209E81209837F907EF6
:10073200011208F11209387F647E001208F1051FC8
:10074200E51F7002051E20934A1209387F647E005D
:100752001208F130920512098380F82092161209CC
:10076200387F507E001208F11209E37F887E13124F
:1007720008F180E71209E81209837F907E011208CE
:10078200F11209387F647E001208F1051FE51F701F
:1007920002051E20944A1209387F647E001208F175
:1007A20030920512099280F82092161209387F5071
:1007B2007E001208F11209E37F887E131208F1808D
:1007C200E71209E81209927F907E011208F11209DC
:1007D200387F647E001208F1051FE51F7002051EB6
:0507E200AE1EAF1F2256
:0C08E400020E00000210000002120000D2
:0509A100007F05DFFEF0
:0109A600222E
:1002FA00758911E4F58BF58DD2AFD2A01209A1C28E
:10030A00A030A1FDD28E20A1FDC28EAF8DEFFEAD31
:10031A008B7C00E42DFDEC3EFCE41202327B967AE3
:10032A0043790B783D12000EE4FBFAF9784012018A
:10033A001712026B8E088F09E4F58BF58DD2A21283
:10034A0009A1C2A230A3FDD28E20A3FDC28EAF8D19
:10035A00EFFEAD8B7C00E42DFDEC3EFCE412023294
:10036A007B967A43790B783D12000EE4FBFAF97812
:10037A004012011712026B8E0A8F0BE4F58BF58D72
:10038A00D2A41209A1C2A430A5FDD28E20A5FDC215
:10039A008EAF8DEFFEAD8B7C00E42DFDEC3EFCE4D0
:1003AA001202327B967A43790B783D12000EE4FBF7
:1003BA00FAF9784012011712026B8E0C8F0DE4F5D0
:1003CA008BF58DC3E509944FE5089400501AE509A9
:1003DA009447E50894004010E50D940BE50C940051
:1003EA005006E5114510600BE50F6401450E6003E8
:1003FA0002049DC3E50D940BE50C9400501A1209F2
:10040A00387F507E001208F11209837F957E01120F
:10041A0008F1750E00750F01D3E50D940BE50C94E8
:10042A00004029E5099410E5089400501F12093884
:10043A007F507E001208F11209837F907E01120814
:10044A00F1E4F50EF50FF51075110122D3E51394B9
:10045A000BE5129400501D12091A7FDC7E00120867
:10046A00F11209387F507E001208F10513E5137066
:10047A0002051222D3E513940AE5129400500302EE
:10048A00056D1209837F907E011208F175120075BD
:10049A00130422C3E509940FE5089400501E1209BB
:1004AA00387F507E001208F11209837F967E00126F
:1004BA0008F11209387F507E001208F1C3E50B9447
:1004CA000FE50A940050111209387F507E00120875
:1004DA00F11209837F96807CAC0CAD0DE4120232D6
:1004EA00E4FBFA790878411201B46020401E12092F
:1004FA00477F327E001208F112091A7F827E0012AB
:10050A0008F11209387F507E001208F1AC0CAD0DCB
:10051A00E4120232E4FBFA790878411201B450433A
:10052A00E50D9432E50C9400401BE50D94C8E50CEA
:10053A00940050111209567F5A7E001208F11209CE
:10054A001A7F32800F1209567F467E001208F11276
:10055A00091A7F827E001208F11209387F507E0044
:04056A001208F12260
:10000E00EC4D6011E8497017ED33EC3304600DE4EC
:10001E00FCFFFEFD22E933E8330470F80202D7122A
:10002E0002A258046009E4CC24815006285009022B
:10003E0002E12840030202DEC0E0EB4A7044B980C0
:10004E0006D0E0FB0202CDEF4E701CBD8008EBFF28
:10005E00EAFEE9FD80EBE98DF0A4FEE5F00200F783
:10006E00E9CDF9EAFEEBFFEF89F0A4FCE5F0CE89CD
:10007E00F0A42EFFE435F0CD89F0A42DFEE435F08A
:10008E008067EF4E7005BD80D780C3EF8BF0A4ACB8
:10009E00F0EE8BF0A42CFCE435F0F8EF8AF0A42CF3
:1000AE00E5F038FCE433CB8DF0A42CFCE5F03BF806
:1000BE00EE8AF0A42CFCE5F038F8E433CF89F0A4F6
:1000CE002CFCE5F038CF3400CE89F0A42FFFE5F0FC
:1000DE003EFEE433C98DF0A42EFEE5F039CD8AF054
:1000EE00A42FFFE5F03EFEE43DFD33D0E0FB5007CC
:1000FE000BBB000F0202E1EC2CFCEF33FFEE33FEE4
:06010E00ED33FD0202B911
:100114000202E1EC5D046005E8590470030202D7B1
:100124001202A2580460F6EC4860F2EC7004FDFE82
:10013400FF22C860DB2481C85009C39860025006BE
:100144000202DE9850CAF582E9294B4A7005AB8257
:100154000202CD75F0007C1A7880C3EF9BEE9AED15
:1001640099400DC3EF9BFFEE9AFEED99FDE842F036
:10017400DC23ACF0D0E0FFD0E0FED0E0FDAB822089
:10018400E7101BEB60BAEC2CFCEF33FFEE33FEED13
:1001940033FD0202B9E803F830E705C0F075F0005A
:1001A400EF2FFFEE33FEED33FD40B830E7C280AAF7
:1001B40074F8CC6480CCC86480C8F58204604FC3F2
:1001C400EB9FF5F0EA9E42F0E99D42F0E89C45F091
:1001D400603C501DE5825FFFE582D313CB5BCBF41B
:1001E4002B5582FB50280ABA002409B90020088044
:1001F4001DE5825BFBE582D313CF5FCFF4C3132FDE
:100204005582FF50090EBE00050DBD00010CC3EB65
:100214009FF5F0EA9E42F0E99D42F0E89C45F060CB
:0902240007CC4820E701B3EC22ED
:10022D0075F020800E75F010800575F0087D007E4C
:10023D00007F003392D530D5031202ECEC33401021
:10024D00EF33FFEE33FEED33FDEC33FCD5F0ED2255
:0E025D00E5F0247EA2D513CC92E7CDCEFF2291
:10026B00EDD2E7CD33EC3392D524814006E4FFFE8B
:10027B00FDFC22FCE4CFCECDCC24E0501174FF80EA
:10028B00EDC3CC13CCCD13CDCE13CECF13CF047087
:07029B00F030D5DE0202EC99
:1002A200E9D2E7C933E833F892D5EDD2E7CD33ECA2
:0702B20033FC5002B2D5221B
:1002B900EC30E7100FBF000C0EBE00080DBD0004A6
:1002C9000BEB6014A2D5EB13FCED92E7FD2274FF52
:1002D900FCFDFEFF22E480F8A2D574FF13FC7D80AB
:0302E900E480EFBF
:030000000207E70D
:0C07E700787FE4F6D8FD75811F02082E13
:0E02EC00C3E49FFFE49EFEE49DFDE49CFC2223
:1007F300020873E493A3F8E493A34003F68001F2A1
:1008030008DFF48029E493A3F85407240CC8C33306
:10081300C4540F4420C8834004F456800146F6DFD5
:10082300E4800B01020408102040809008DCE47E81
:10083300019360BCA3FF543F30E509541FFEE493CA
:10084300A360010ECF54C025E060A840B8E493A391
:10085300FAE493A3F8E493A3C8C582C8CAC583CABC
:10086300F0A3C8C582C8CAC583CADFE9DEE780BE74
:0108F0000007
:00000001FF
