:0B044D001203B21203C612030D80F868
:05045800C285D28622DE
:05045D00D285D28622C9
:05046200D285C28622D4
:05046700C283D28422D3
:05046C00D283D28422BE
:05047100D283C28422C9
:05047600D2B5C2B62260
:05047B00D2B5D2B6224B
:05048000C2B5D2B62256
:05048500D2B3C2B42255
:05048A00D2B3D2B42240
:05048F00C2B3D2B4224B
:1003B200758911758AA4758CFFC28DD28CD2A9D28F
:0403C200AFD2B922DB
:03000B0002036984
:10036900C0E0C0D0758AA4758CFF050DE50DC39456
:10037900644003750D00E50DC3950C500AD287D270
:1003890082D2B7D2B28008C287C282C2B7C2B2D003
:04039900D0D0E032AE
:0F03C600750C1E12045812046712047602048587
:0F03D500750C1E12046212047112048002048F50
:0F03E400750C1E12045D12046C12047B02048A55
:0F03F300750C1E12045812046C12047602048A50
:0F040200750C1E12045D12046712047B02048540
:0F041100750C1E12046212046C12048002048A1D
:0F042000750C1E12045D12047112047B02048F0E
:0F042F00750C1E12045812047112047602048F09
:0F043E00750C1E120462120467120480020485FA
:10039D00EF1FAC0670011E4C600A7D027CEFDCFE87
:0403AD00DDFC80EC07
:0103B1002229
:040494000208001E3C
:05000300007F06DFFE96
:0100080022D5
:10030D00758911E4F58BF58DD2A1120003C2A130D0
:10031D00A2FDD28E20A2FDC28EAF8DEFFEAD8B7CE5
:10032D0000E42DFDEC3EFCE41201B97B967A437995
:10033D000B783D12000EE4FBFAF97840120117120A
:10034D0001F28E0A8F0BC3E50B9509E50A9508504E
:0C035D000A12043E7F587E0212039D220B
:10000E00EC4D6011E8497017ED33EC3304600DE4EC
:10001E00FCFFFEFD22E933E8330470F802025E12A3
:10002E00022958046009E4CC2481500628500902A4
:10003E000268284003020265C0E0EB4A7044B980B2
:10004E0006D0E0FB020254EF4E701CBD8008EBFFA1
:10005E00EAFEE9FD80EBE98DF0A4FEE5F00200F783
:10006E00E9CDF9EAFEEBFFEF89F0A4FCE5F0CE89CD
:10007E00F0A42EFFE435F0CD89F0A42DFEE435F08A
:10008E008067EF4E7005BD80D780C3EF8BF0A4ACB8
:10009E00F0EE8BF0A42CFCE435F0F8EF8AF0A42CF3
:1000AE00E5F038FCE433CB8DF0A42CFCE5F03BF806
:1000BE00EE8AF0A42CFCE5F038F8E433CF89F0A4F6
:1000CE002CFCE5F038CF3400CE89F0A42FFFE5F0FC
:1000DE003EFEE433C98DF0A42EFEE5F039CD8AF054
:1000EE00A42FFFE5F03EFEE43DFD33D0E0FB5007CC
:1000FE000BBB000F020268EC2CFCEF33FFEE33FE5D
:06010E00ED33FD0202408A
:10011400020268EC5D046005E85904700302025EA3
:10012400120229580460F6EC4860F2EC7004FDFEFB
:10013400FF22C860DB2481C85009C39860025006BE
:100144000202659850CAF582E9294B4A7005AB82D0
:1001540002025475F0007C1A7880C3EF9BEE9AED8E
:1001640099400DC3EF9BFFEE9AFEED99FDE842F036
:10017400DC23ACF0D0E0FFD0E0FED0E0FDAB822089
:10018400E7101BEB60BAEC2CFCEF33FFEE33FEED13
:1001940033FD020240E803F830E705C0F075F000D3
:1001A400EF2FFFEE33FEED33FD40B830E7C280AAF7
:1001B40075F020800E75F010800575F0087D007EC6
:1001C400007F003392D530D503120273EC33401014
:1001D400EF33FFEE33FEED33FDEC33FCD5F0ED22CF
:0E01E400E5F0247EA2D513CC92E7CDCEFF220B
:1001F200EDD2E7CD33EC3392D524814006E4FFFE05
:10020200FDFC22FCE4CFCECDCC24E0501174FF8063
:10021200EDC3CC13CCCD13CDCE13CECF13CF047000
:07022200F030D5DE0202738B
:10022900E9D2E7C933E833F892D5EDD2E7CD33EC1B
:0702390033FC5002B2D52294
:10024000EC30E7100FBF000C0EBE00080DBD00041F
:100250000BEB6014A2D5EB13FCED92E7FD2274FFCB
:10026000FCFDFEFF22E480F8A2D574FF13FC7D8024
:03027000E480EF38
:0300000002028178
:0C028100787FE4F6D8FD75810D0202C8FC
:0E027300C3E49FFFE49EFEE49DFDE49CFC229C
:10028D0002044DE493A3F8E493A34003F68001F236
:10029D0008DFF48029E493A3F85407240CC8C33372
:1002AD00C4540F4420C8834004F456800146F6DF41
:1002BD00E4800B0102040810204080900494E47E39
:1002CD00019360BCA3FF543F30E509541FFEE49336
:1002DD00A360010ECF54C025E060A840B8E493A3FD
:1002ED00FAE493A3F8E493A3C8C582C8CAC583CA28
:1002FD00F0A3C8C582C8CAC583CADFE9DEE780BEE0
:010498000063
:00000001FF
