:0800030012005712006B80FB94
:0500FE00C285D286223C
:05010300D285D2862226
:05010800D285C2862231
:05010D00C283D2842230
:05011200D283D284221B
:05011700D283C2842226
:05011C00D2B5C2B622BD
:05012100D2B5D2B622A8
:05012600C2B5D2B622B3
:05012B00D2B3C2B422B2
:05013000D2B3D2B4229D
:05013500C2B3D2B422A8
:10005700758911758AA4758CFFC28DD28CD2A9D2ED
:04006700AFD2B92239
:03000B0002000EE2
:10000E00C0E0C0D0758AA4758CFF0509E509C394BC
:10001E00644003750900E509C39508500AD287D2DA
:10002E0082D2B7D2B28008C287C282C2B7C2B2D061
:04003E00D0D0E0320C
:0F006B007508321200FE12010D12011C02012B4A
:0F007A0075081412010812011712012602013530
:0F00890075081412010312011212012102013035
:0F0098007508141200FE12011212011C02013031
:0F00A70075081412010312010D12012102012B21
:0F00B600750814120108120112120126020130FE
:0F00C500750814120103120117120121020135EF
:0F00D4007508141200FE12011712011C020135EB
:0F00E30075081412010812010D12012602012BDB
:10004200EF1FAC0670011E4C600A7D027CEFDCFEE5
:04005200DDFC80EC65
:010056002287
:030000000200F209
:0C00F200787FE4F6D8FD75810902000358
:00000001FF
