:1005980012067D1205841205A91202FA12049E8021
:0105A800F85A
:05063C00C285D28622F8
:05064100D285D28622E3
:05064600D285C28622EE
:05064B00C283D28422ED
:05065000D283D28422D8
:05065500D283C28422E3
:05065A00D2B5C2B6227A
:05065F00D2B5D2B62265
:05066400C2B5D2B62270
:05066900D2B3C2B4226F
:05066E00D2B3D2B4225A
:05067300C2B3D2B42265
:10058400758911758AA4758CFFC28DD28CD2A9D2BB
:04059400AFD2B92207
:03000B0002053BB0
:10053B00C0E0C0D0758AA4758CFF050FE50FC3947E
:10054B00644003750F00E50FC3950E500AD287D296
:10055B0082D2B7D2B28008C287C282C2B7C2B2D02F
:04056B00D0D0E032DA
:0F05A900750E0E12063C12064B12065A02066918
:0F05B800750E1E120646120655120664020673D1
:0F05C700750E1E12064112065012065F02066ED6
:0F05D600750E1E12063C12065012065A02066ED1
:0F05E500750E1E12064112064B12065F020669C2
:0F05F400750E1912064612065012066402066EA4
:0F060300750E1912064112065512065F02067394
:0F061200750E1912063C12065512065A0206738F
:0F062100750E1912064612064B12066402066980
:10056F00EF1FAC0670011E4C600A7D027CEFDCFEB3
:04057F00DDFC80EC33
:010583002255
:05000300007F05DFFE97
:0100080022D5
:1002FA00758911E4F58BF58DD2AFD2A0120003C235
:10030A00A030A1FDD28E20A1FDC28EAF8DEFFEAD31
:10031A008B7C00E42DFDEC3EFCE41202327B967AE3
:10032A0043790B783D12000EE4FBFAF9784012018A
:10033A001712026B8E088F09E4F58BF58DD2A21283
:10034A000003C2A230A3FDD28E20A3FDC28EAF8DC0
:10035A00EFFEAD8B7C00E42DFDEC3EFCE412023294
:10036A007B967A43790B783D12000EE4FBFAF97812
:10037A004012011712026B8E0A8F0BE4F58BF58D72
:10038A00D2A4120003C2A430A5FDD28E20A5FDC2BC
:10039A008EAF8DEFFEAD8B7C00E42DFDEC3EFCE4D0
:1003AA001202327B967A43790B783D12000EE4FBF7
:1003BA00FAF9784012011712026B8E0C8F0DE4F5D0
:1003CA008BF58DC3E509940FE5089400501E1205BC
:1003DA00C77F507E0012056F1206127F967E0012AA
:1003EA00056F1205C77F507E0012056FC3E50B9497
:1003FA000FE50A940050111205C77F507E001205BE
:10040A006F1206127F96807CAC0CAD0DE41202329C
:10041A00E4FBFA790878411201B46020401E120503
:10042A00D67F327E0012056F1205A97F827E0012E6
:10043A00056F1205C77F507E0012056FAC0CAD0D1B
:10044A00E4120232E4FBFA790878411201B450430B
:10045A00E50D9432E50C9400401BE50D94C8E50CBB
:10046A00940050111205E57F647E0012056F120593
:10047A00A97F1E800F1205E57F467E0012056F12C6
:10048A0005A97F827E0012056F1205C77F507E0084
:04049A0012056F22B6
:05067800D290D2912296
:05067D00C290C29122B1
:10049E0020920F1205C71206787F887E1312056F01
:1004AE00802E2093421205C77F647E0012056F30A6
:1004BE00920512061280F82092161205C77F507E02
:1004CE000012056F1206787F887E1312056F80E783
:1004DE0012067D1206127FF47E0112056F1205C7F9
:1004EE007F647E0012056F2094421205C77F647EE2
:1004FE000012056F30920512062180F82092161216
:10050E0005C77F507E0012056F1206787F887E1316
:10051E0012056F80E712067D1206217FF47E01120E
:0D052E00056F1205C77F647E0012056F2265
:10000E00EC4D6011E8497017ED33EC3304600DE4EC
:10001E00FCFFFEFD22E933E8330470F80202D7122A
:10002E0002A258046009E4CC24815006285009022B
:10003E0002E12840030202DEC0E0EB4A7044B980C0
:10004E0006D0E0FB0202CDEF4E701CBD8008EBFF28
:10005E00EAFEE9FD80EBE98DF0A4FEE5F00200F783
:10006E00E9CDF9EAFEEBFFEF89F0A4FCE5F0CE89CD
:10007E00F0A42EFFE435F0CD89F0A42DFEE435F08A
:10008E008067EF4E7005BD80D780C3EF8BF0A4ACB8
:10009E00F0EE8BF0A42CFCE435F0F8EF8AF0A42CF3
:1000AE00E5F038FCE433CB8DF0A42CFCE5F03BF806
:1000BE00EE8AF0A42CFCE5F038F8E433CF89F0A4F6
:1000CE002CFCE5F038CF3400CE89F0A42FFFE5F0FC
:1000DE003EFEE433C98DF0A42EFEE5F039CD8AF054
:1000EE00A42FFFE5F03EFEE43DFD33D0E0FB5007CC
:1000FE000BBB000F0202E1EC2CFCEF33FFEE33FEE4
:06010E00ED33FD0202B911
:100114000202E1EC5D046005E8590470030202D7B1
:100124001202A2580460F6EC4860F2EC7004FDFE82
:10013400FF22C860DB2481C85009C39860025006BE
:100144000202DE9850CAF582E9294B4A7005AB8257
:100154000202CD75F0007C1A7880C3EF9BEE9AED15
:1001640099400DC3EF9BFFEE9AFEED99FDE842F036
:10017400DC23ACF0D0E0FFD0E0FED0E0FDAB822089
:10018400E7101BEB60BAEC2CFCEF33FFEE33FEED13
:1001940033FD0202B9E803F830E705C0F075F0005A
:1001A400EF2FFFEE33FEED33FD40B830E7C280AAF7
:1001B40074F8CC6480CCC86480C8F58204604FC3F2
:1001C400EB9FF5F0EA9E42F0E99D42F0E89C45F091
:1001D400603C501DE5825FFFE582D313CB5BCBF41B
:1001E4002B5582FB50280ABA002409B90020088044
:1001F4001DE5825BFBE582D313CF5FCFF4C3132FDE
:100204005582FF50090EBE00050DBD00010CC3EB65
:100214009FF5F0EA9E42F0E99D42F0E89C45F060CB
:0902240007CC4820E701B3EC22ED
:10022D0075F020800E75F010800575F0087D007E4C
:10023D00007F003392D530D5031202ECEC33401021
:10024D00EF33FFEE33FEED33FDEC33FCD5F0ED2255
:0E025D00E5F0247EA2D513CC92E7CDCEFF2291
:10026B00EDD2E7CD33EC3392D524814006E4FFFE8B
:10027B00FDFC22FCE4CFCECDCC24E0501174FF80EA
:10028B00EDC3CC13CCCD13CDCE13CECF13CF047087
:07029B00F030D5DE0202EC99
:1002A200E9D2E7C933E833F892D5EDD2E7CD33ECA2
:0702B20033FC5002B2D5221B
:1002B900EC30E7100FBF000C0EBE00080DBD0004A6
:1002C9000BEB6014A2D5EB13FCED92E7FD2274FF52
:1002D900FCFDFEFF22E480F8A2D574FF13FC7D80AB
:0302E900E480EFBF
:03000000020630C5
:0C063000787FE4F6D8FD75810F02059874
:0E02EC00C3E49FFFE49EFEE49DFDE49CFC2223
:00000001FF
