:1004EF001204DB1205017F017E001204C612028185
:0204FF0080F18A
:05059500C285D28622A0
:05059A00D285D286228B
:05059F00D285C2862296
:0505A400C283D2842295
:0505A900D283D2842280
:0505AE00D283C284228B
:0505B300D2B5C2B62222
:0505B800D2B5D2B6220D
:0505BD00C2B5D2B62218
:0505C200D2B3C2B42217
:0505C700D2B3D2B42202
:0505CC00C2B3D2B4220D
:1004DB00758911758AA4758CFFC28DD28CD2A9D265
:0404EB00AFD2B922B1
:03000B000204925A
:10049200C0E0C0D0758AA4758CFF0515E515C3941C
:1004A200644003751500E515C39514500AD287D22E
:1004B20082D2B7D2B28008C287C282C2B7C2B2D0D9
:0404C200D0D0E03284
:0F0501007514141205951205A41205B30205C254
:0F05100075141E12059F1205AE1205BD0205CC13
:0F051F0075141E12059A1205A91205B80205C718
:0F052E0075141E1205951205A91205B30205C713
:0F053D0075141E12059A1205A41205B80205C204
:0F054C0075141E12059F1205A91205BD0205C7E1
:0F055B0075141E12059A1205AE1205B80205CCD2
:0F056A0075141E1205951205AE1205B30205CCCD
:0F05790075141E12059F1205A41205BD0205C2BE
:1004C600EF1FAC0670011E4C600A7D027CEFDCFE5D
:0404D600DDFC80ECDD
:0104DA0022FF
:0C058800020E00140210001402120014F5
:05000300007F06DFFE96
:0100080022D5
:10028100758911E4F58BF58DD2AFD2A0120003C2AE
:10029100A030A1FDD28E20A1FDC28EAF8DEFFEADAB
:1002A1008B7C00E42DFDEC3EFCE41201B97B967AD7
:1002B10043790B783D12000EE4FBFAF97840120104
:1002C100171201F28E088F09E4F58BF58DD2A21277
:1002D1000003C2A230A3FDD28E20A3FDC28EAF8D3A
:1002E100EFFEAD8B7C00E42DFDEC3EFCE41201B988
:1002F1007B967A43790B783D12000EE4FBFAF9788C
:10030100401201171201F28E0A8F0BE4F58BF58D65
:10031100D2A4120003C2A430A5FDD28E20A5FDC235
:100321008EAF8DEFFEAD8B7C00E42DFDEC3EFCE449
:100331001201B97B967A43790B783D12000EE4FBEA
:10034100FAF978401201171201F28E0C8F0DE4F5C3
:100351008BF58DC3E509950FE508950E5054C3E55E
:100361000B950DE50A950C501E12051F7F647E004A
:100371001204C61205797F647E001204C612051F9D
:100381007F647E001204C6C3E50D950BE50C950A4A
:10039100501612051F7F647E001204C612056A7F83
:1003A100967E001204C6800012051F7F647E001233
:1003B10004C6C3E50B9511E50A9510501E12051FE1
:1003C1007F647E001204C61205797F967E001204B6
:1003D100C612051F7F647E001204C6C3E50D951386
:1003E100E50C9512501E12051F7F647E001204C693
:1003F10012056A7FC87E001204C612051F7F647E43
:05040100001204C622F8
:10000E00EC4D6011E8497017ED33EC3304600DE4EC
:10001E00FCFFFEFD22E933E8330470F802025E12A3
:10002E00022958046009E4CC2481500628500902A4
:10003E000268284003020265C0E0EB4A7044B980B2
:10004E0006D0E0FB020254EF4E701CBD8008EBFFA1
:10005E00EAFEE9FD80EBE98DF0A4FEE5F00200F783
:10006E00E9CDF9EAFEEBFFEF89F0A4FCE5F0CE89CD
:10007E00F0A42EFFE435F0CD89F0A42DFEE435F08A
:10008E008067EF4E7005BD80D780C3EF8BF0A4ACB8
:10009E00F0EE8BF0A42CFCE435F0F8EF8AF0A42CF3
:1000AE00E5F038FCE433CB8DF0A42CFCE5F03BF806
:1000BE00EE8AF0A42CFCE5F038F8E433CF89F0A4F6
:1000CE002CFCE5F038CF3400CE89F0A42FFFE5F0FC
:1000DE003EFEE433C98DF0A42EFEE5F039CD8AF054
:1000EE00A42FFFE5F03EFEE43DFD33D0E0FB5007CC
:1000FE000BBB000F020268EC2CFCEF33FFEE33FE5D
:06010E00ED33FD0202408A
:10011400020268EC5D046005E85904700302025EA3
:10012400120229580460F6EC4860F2EC7004FDFEFB
:10013400FF22C860DB2481C85009C39860025006BE
:100144000202659850CAF582E9294B4A7005AB82D0
:1001540002025475F0007C1A7880C3EF9BEE9AED8E
:1001640099400DC3EF9BFFEE9AFEED99FDE842F036
:10017400DC23ACF0D0E0FFD0E0FED0E0FDAB822089
:10018400E7101BEB60BAEC2CFCEF33FFEE33FEED13
:1001940033FD020240E803F830E705C0F075F000D3
:1001A400EF2FFFEE33FEED33FD40B830E7C280AAF7
:1001B40075F020800E75F010800575F0087D007EC6
:1001C400007F003392D530D503120273EC33401014
:1001D400EF33FFEE33FEED33FDEC33FCD5F0ED22CF
:0E01E400E5F0247EA2D513CC92E7CDCEFF220B
:1001F200EDD2E7CD33EC3392D524814006E4FFFE05
:10020200FDFC22FCE4CFCECDCC24E0501174FF8063
:10021200EDC3CC13CCCD13CDCE13CECF13CF047000
:07022200F030D5DE0202738B
:10022900E9D2E7C933E833F892D5EDD2E7CD33EC1B
:0702390033FC5002B2D52294
:10024000EC30E7100FBF000C0EBE00080DBD00041F
:100250000BEB6014A2D5EB13FCED92E7FD2274FFCB
:10026000FCFDFEFF22E480F8A2D574FF13FC7D8024
:03027000E480EF38
:03000000020406F1
:0C040600787FE4F6D8FD75811502044DE6
:0E027300C3E49FFFE49EFEE49DFDE49CFC229C
:100412000204EFE493A3F8E493A34003F68001F20D
:1004220008DFF48029E493A3F85407240CC8C333EB
:10043200C4540F4420C8834004F456800146F6DFBA
:10044200E4800B0102040810204080900588E47EBD
:10045200019360BCA3FF543F30E509541FFEE493AF
:10046200A360010ECF54C025E060A840B8E493A376
:10047200FAE493A3F8E493A3C8C582C8CAC583CAA1
:10048200F0A3C8C582C8CAC583CADFE9DEE780BE59
:010594000066
:00000001FF
