:030000000202D623
:0C02D600787FE4F6D8FD75811102031D4D
:04046300020A000089
:1004050012044F050BE50B7002050A120362120375
:10041500628E088F09C3E5099421E508940040150B
:10042500D3E50B942CE50A9401500512046C80D396
:1004350012047380CE120003C3E50B9464E50A949D
:0A0445000040C0E4F50AF50B80B991
:05047A00007F04DFFE1D
:01047F00225A
:10036200758911E4F58BF58DD2AFD2A012047AC251
:10037200A030A1FDD28E20A1FDC28EAF8DEFFEADC9
:100382008B7C00E42DFDEC3EFCE41201B97B967AF5
:1003920043790B783D12000EE4FBFAF97840120122
:1003A200171201F28E108F11E4F58BF58DAE10AF9E
:0203B200112216
:04046700020C00146F
:10044F00438911758AA4758CFFC28DD28CD2A9D223
:04045F00AFD2B9223D
:03000B000203B439
:1003B400C0E0C0F0C0D075D000C000C004C005C00B
:1003C40006C007758AA4758CFFC3E50F950DE50E6D
:1003D400950C5004D2908002C290050FE50F700274
:1003E400050EAE0EFF7C007DA01202738C0E8D0FE5
:1003F400D007D006D005D004D000D0D0D0F0D0E0C3
:0104040032C5
:07000300750C00750D0C22C5
:07046C00750C00750D0B2259
:07047300750C00750D0D2250
:10000E00EC4D6011E8497017ED33EC3304600DE4EC
:10001E00FCFFFEFD22E933E8330470F802025E12A3
:10002E00022958046009E4CC2481500628500902A4
:10003E000268284003020265C0E0EB4A7044B980B2
:10004E0006D0E0FB020254EF4E701CBD8008EBFFA1
:10005E00EAFEE9FD80EBE98DF0A4FEE5F00200F783
:10006E00E9CDF9EAFEEBFFEF89F0A4FCE5F0CE89CD
:10007E00F0A42EFFE435F0CD89F0A42DFEE435F08A
:10008E008067EF4E7005BD80D780C3EF8BF0A4ACB8
:10009E00F0EE8BF0A42CFCE435F0F8EF8AF0A42CF3
:1000AE00E5F038FCE433CB8DF0A42CFCE5F03BF806
:1000BE00EE8AF0A42CFCE5F038F8E433CF89F0A4F6
:1000CE002CFCE5F038CF3400CE89F0A42FFFE5F0FC
:1000DE003EFEE433C98DF0A42EFEE5F039CD8AF054
:1000EE00A42FFFE5F03EFEE43DFD33D0E0FB5007CC
:1000FE000BBB000F020268EC2CFCEF33FFEE33FE5D
:06010E00ED33FD0202408A
:10011400020268EC5D046005E85904700302025EA3
:10012400120229580460F6EC4860F2EC7004FDFEFB
:10013400FF22C860DB2481C85009C39860025006BE
:100144000202659850CAF582E9294B4A7005AB82D0
:1001540002025475F0007C1A7880C3EF9BEE9AED8E
:1001640099400DC3EF9BFFEE9AFEED99FDE842F036
:10017400DC23ACF0D0E0FFD0E0FED0E0FDAB822089
:10018400E7101BEB60BAEC2CFCEF33FFEE33FEED13
:1001940033FD020240E803F830E705C0F075F000D3
:1001A400EF2FFFEE33FEED33FD40B830E7C280AAF7
:1001B40075F020800E75F010800575F0087D007EC6
:1001C400007F003392D530D5031202C8EC334010BF
:1001D400EF33FFEE33FEED33FDEC33FCD5F0ED22CF
:0E01E400E5F0247EA2D513CC92E7CDCEFF220B
:1001F200EDD2E7CD33EC3392D524814006E4FFFE05
:10020200FDFC22FCE4CFCECDCC24E0501174FF8063
:10021200EDC3CC13CCCD13CDCE13CECF13CF047000
:07022200F030D5DE0202C836
:10022900E9D2E7C933E833F892D5EDD2E7CD33EC1B
:0702390033FC5002B2D52294
:10024000EC30E7100FBF000C0EBE00080DBD00041F
:100250000BEB6014A2D5EB13FCED92E7FD2274FFCB
:10026000FCFDFEFF22E480F8A2D574FF13FC7D8024
:03027000E480EF38
:1002E200020405E493A3F8E493A34003F68001F229
:1002F20008DFF48029E493A3F85407240CC8C3331D
:10030200C4540F4420C8834004F456800146F6DFEB
:10031200E4800B0102040810204080900463E47E14
:10032200019360BCA3FF543F30E509541FFEE493E0
:10033200A360010ECF54C025E060A840B8E493A3A7
:10034200FAE493A3F8E493A3C8C582C8CAC583CAD2
:10035200F0A3C8C582C8CAC583CADFE9DEE780BE8A
:01046B000090
:10027300BC000BBE0029EF8DF084FFADF022E4CC6F
:10028300F875F008EF2FFFEE33FEEC33FCEE9DEC38
:10029300984005FCEE9DFE0FD5F0E9E4CEFD22ED7E
:1002A300F8F5F0EE8420D21CFEADF075F008EF2FC8
:1002B300FFED33FD4007985006D5F0F222C398FDB9
:0502C3000FD5F0EA2256
:0E02C800C3E49FFFE49EFEE49DFDE49CFC2247
:00000001FF
