:0B058E001204E71204FB1202FA80FBCB
:05059900C285D286229C
:05059E00D285D2862287
:0505A300D285C2862292
:0505A800C283D2842291
:0505AD00D283D284227C
:0505B200D283C2842287
:0505B700D2B5C2B6221E
:0505BC00D2B5D2B62209
:0505C100C2B5D2B62214
:0505C600D2B3C2B42213
:0505CB00D2B3D2B422FE
:0505D000C2B3D2B42209
:1004E700758911758AA4758CFFC28DD28CD2A9D259
:0404F700AFD2B922A5
:03000B0002049E4E
:10049E00C0E0C0D0758AA4758CFF050FE50FC3941C
:1004AE00644003750F00E50FC3950E500AD287D234
:1004BE0082D2B7D2B28008C287C282C2B7C2B2D0CD
:0404CE00D0D0E03278
:0F04FB00750E0E1205991205A81205B70205C657
:0F050A00750E1E1205A31205B21205C10205D00F
:0F051900750E1E12059E1205AD1205BC0205CB14
:0F052800750E1E1205991205AD1205B70205CB0F
:0F053700750E1E12059E1205A81205BC0205C600
:0F054600750E191205A31205AD1205C10205CBE2
:0F055500750E1912059E1205B21205BC0205D0D3
:0F056400750E191205991205B21205B70205D0CE
:0F057300750E191205A31205A81205C10205C6BF
:1004D200EF1FAC0670011E4C600A7D027CEFDCFE51
:0404E200DDFC80ECD1
:0104E60022F3
:05000300007F05DFFE97
:0100080022D5
:1002FA00758911E4F58BF58DD2AFD2A0120003C235
:10030A00A030A1FDD28E20A1FDC28EAF8DEFFEAD31
:10031A008B7C00E42DFDEC3EFCE41202327B967AE3
:10032A0043790B783D12000EE4FBFAF9784012018A
:10033A001712026B8E088F09E4F58BF58DD2A21283
:10034A000003C2A230A3FDD28E20A3FDC28EAF8DC0
:10035A00EFFEAD8B7C00E42DFDEC3EFCE412023294
:10036A007B967A43790B783D12000EE4FBFAF97812
:10037A004012011712026B8E0A8F0BE4F58BF58D72
:10038A00D2A4120003C2A430A5FDD28E20A5FDC2BC
:10039A008EAF8DEFFEAD8B7C00E42DFDEC3EFCE4D0
:1003AA001202327B967A43790B783D12000EE4FBF7
:1003BA00FAF9784012011712026B8E0C8F0DE4F5D0
:1003CA008BF58DC3E509940FE5089400501E1205BC
:1003DA00197F507E001204D21205647F967E0012A5
:1003EA0004D21205197F507E001204D2C3E50B9481
:1003FA000FE50A940050111205197F507E0012046D
:10040A00D21205647F96807CAC0CAD0DE4120232E8
:10041A00E4FBFA790878411201B46020401E120503
:10042A00287F327E001204D21204FB7F827E0012E1
:10043A0004D21205197F507E001204D2AC0CAD0D05
:10044A00E4120232E4FBFA790878411201B450430B
:10045A00E50D9432E50C9400401BE50D94C8E50CBB
:10046A00940050111205377F647E001204D21204E0
:10047A00FB7F1E800F1205377F467E001204D212C0
:10048A0004FB7F827E001204D21205197F507E007F
:04049A001204D22254
:10000E00EC4D6011E8497017ED33EC3304600DE4EC
:10001E00FCFFFEFD22E933E8330470F80202D7122A
:10002E0002A258046009E4CC24815006285009022B
:10003E0002E12840030202DEC0E0EB4A7044B980C0
:10004E0006D0E0FB0202CDEF4E701CBD8008EBFF28
:10005E00EAFEE9FD80EBE98DF0A4FEE5F00200F783
:10006E00E9CDF9EAFEEBFFEF89F0A4FCE5F0CE89CD
:10007E00F0A42EFFE435F0CD89F0A42DFEE435F08A
:10008E008067EF4E7005BD80D780C3EF8BF0A4ACB8
:10009E00F0EE8BF0A42CFCE435F0F8EF8AF0A42CF3
:1000AE00E5F038FCE433CB8DF0A42CFCE5F03BF806
:1000BE00EE8AF0A42CFCE5F038F8E433CF89F0A4F6
:1000CE002CFCE5F038CF3400CE89F0A42FFFE5F0FC
:1000DE003EFEE433C98DF0A42EFEE5F039CD8AF054
:1000EE00A42FFFE5F03EFEE43DFD33D0E0FB5007CC
:1000FE000BBB000F0202E1EC2CFCEF33FFEE33FEE4
:06010E00ED33FD0202B911
:100114000202E1EC5D046005E8590470030202D7B1
:100124001202A2580460F6EC4860F2EC7004FDFE82
:10013400FF22C860DB2481C85009C39860025006BE
:100144000202DE9850CAF582E9294B4A7005AB8257
:100154000202CD75F0007C1A7880C3EF9BEE9AED15
:1001640099400DC3EF9BFFEE9AFEED99FDE842F036
:10017400DC23ACF0D0E0FFD0E0FED0E0FDAB822089
:10018400E7101BEB60BAEC2CFCEF33FFEE33FEED13
:1001940033FD0202B9E803F830E705C0F075F0005A
:1001A400EF2FFFEE33FEED33FD40B830E7C280AAF7
:1001B40074F8CC6480CCC86480C8F58204604FC3F2
:1001C400EB9FF5F0EA9E42F0E99D42F0E89C45F091
:1001D400603C501DE5825FFFE582D313CB5BCBF41B
:1001E4002B5582FB50280ABA002409B90020088044
:1001F4001DE5825BFBE582D313CF5FCFF4C3132FDE
:100204005582FF50090EBE00050DBD00010CC3EB65
:100214009FF5F0EA9E42F0E99D42F0E89C45F060CB
:0902240007CC4820E701B3EC22ED
:10022D0075F020800E75F010800575F0087D007E4C
:10023D00007F003392D530D5031202ECEC33401021
:10024D00EF33FFEE33FEED33FDEC33FCD5F0ED2255
:0E025D00E5F0247EA2D513CC92E7CDCEFF2291
:10026B00EDD2E7CD33EC3392D524814006E4FFFE8B
:10027B00FDFC22FCE4CFCECDCC24E0501174FF80EA
:10028B00EDC3CC13CCCD13CDCE13CECF13CF047087
:07029B00F030D5DE0202EC99
:1002A200E9D2E7C933E833F892D5EDD2E7CD33ECA2
:0702B20033FC5002B2D5221B
:1002B900EC30E7100FBF000C0EBE00080DBD0004A6
:1002C9000BEB6014A2D5EB13FCED92E7FD2274FF52
:1002D900FCFDFEFF22E480F8A2D574FF13FC7D80AB
:0302E900E480EFBF
:0300000002058274
:0C058200787FE4F6D8FD75810F02058E2D
:0E02EC00C3E49FFFE49EFEE49DFDE49CFC2223
:00000001FF
